{
  "_format": "hh-sol-artifact-1",
  "contractName": "Allowance",
  "sourceName": "contracts/allowance.sol",
  "abi": [
    {
      "inputs": [
        {
          "internalType": "string",
          "name": "_name",
          "type": "string"
        },
        {
          "internalType": "string",
          "name": "_familyName",
          "type": "string"
        }
      ],
      "stateMutability": "nonpayable",
      "type": "constructor"
    },
    {
      "inputs": [
        {
          "internalType": "address",
          "name": "_address",
          "type": "address"
        },
        {
          "internalType": "string",
          "name": "_name",
          "type": "string"
        }
      ],
      "name": "addFamilyMember",
      "outputs": [],
      "stateMutability": "nonpayable",
      "type": "function"
    },
    {
      "inputs": [
        {
          "internalType": "address",
          "name": "_address",
          "type": "address"
        },
        {
          "internalType": "uint256",
          "name": "_amount",
          "type": "uint256"
        }
      ],
      "name": "addFunds",
      "outputs": [],
      "stateMutability": "nonpayable",
      "type": "function"
    },
    {
      "inputs": [
        {
          "internalType": "address",
          "name": "_address",
          "type": "address"
        }
      ],
      "name": "checkBalance",
      "outputs": [
        {
          "internalType": "uint256",
          "name": "",
          "type": "uint256"
        }
      ],
      "stateMutability": "view",
      "type": "function"
    },
    {
      "inputs": [
        {
          "internalType": "uint256",
          "name": "",
          "type": "uint256"
        }
      ],
      "name": "familyMemberAccounts",
      "outputs": [
        {
          "internalType": "address",
          "name": "",
          "type": "address"
        }
      ],
      "stateMutability": "view",
      "type": "function"
    },
    {
      "inputs": [
        {
          "internalType": "address",
          "name": "_address",
          "type": "address"
        }
      ],
      "name": "getAccountStatus",
      "outputs": [
        {
          "internalType": "bool",
          "name": "",
          "type": "bool"
        }
      ],
      "stateMutability": "view",
      "type": "function"
    },
    {
      "inputs": [
        {
          "internalType": "address",
          "name": "_address",
          "type": "address"
        }
      ],
      "name": "getFamilyName",
      "outputs": [
        {
          "internalType": "string",
          "name": "",
          "type": "string"
        }
      ],
      "stateMutability": "view",
      "type": "function"
    },
    {
      "inputs": [
        {
          "internalType": "address",
          "name": "_address",
          "type": "address"
        }
      ],
      "name": "getSpendLimit",
      "outputs": [
        {
          "internalType": "uint256",
          "name": "",
          "type": "uint256"
        }
      ],
      "stateMutability": "view",
      "type": "function"
    },
    {
      "inputs": [
        {
          "internalType": "address",
          "name": "_address",
          "type": "address"
        },
        {
          "internalType": "uint256",
          "name": "_amount",
          "type": "uint256"
        }
      ],
      "name": "sendFunds",
      "outputs": [],
      "stateMutability": "nonpayable",
      "type": "function"
    },
    {
      "inputs": [
        {
          "internalType": "string",
          "name": "_familyName",
          "type": "string"
        }
      ],
      "name": "setFamilyName",
      "outputs": [],
      "stateMutability": "nonpayable",
      "type": "function"
    },
    {
      "inputs": [
        {
          "internalType": "address",
          "name": "_address",
          "type": "address"
        }
      ],
      "name": "setParent",
      "outputs": [],
      "stateMutability": "nonpayable",
      "type": "function"
    },
    {
      "inputs": [
        {
          "internalType": "address",
          "name": "_address",
          "type": "address"
        },
        {
          "internalType": "uint256",
          "name": "_amount",
          "type": "uint256"
        }
      ],
      "name": "setSpendLimit",
      "outputs": [],
      "stateMutability": "nonpayable",
      "type": "function"
    }
  ],
  "bytecode": "0x60806040523480156200001157600080fd5b50604051620020e8380380620020e88339818101604052810190620000379190620003c3565b620000416200024a565b81816000018190525060018160200190151590811515815250508281604001819052506000816060018181525050600181608001901515908115158152505060008160a0018181525050338160c0019073ffffffffffffffffffffffffffffffffffffffff16908173ffffffffffffffffffffffffffffffffffffffff1681525050806000803373ffffffffffffffffffffffffffffffffffffffff1673ffffffffffffffffffffffffffffffffffffffff168152602001908152602001600020600082015181600001908051906020019062000120929190620002a1565b5060208201518160010160006101000a81548160ff02191690831515021790555060408201518160020190805190602001906200015f929190620002a1565b506060820151816003015560808201518160040160006101000a81548160ff02191690831515021790555060a0820151816005015560c08201518160060160006101000a81548173ffffffffffffffffffffffffffffffffffffffff021916908373ffffffffffffffffffffffffffffffffffffffff1602179055509050506001339080600181540180825580915050600190039060005260206000200160009091909190916101000a81548173ffffffffffffffffffffffffffffffffffffffff021916908373ffffffffffffffffffffffffffffffffffffffff160217905550505050620005a6565b6040518060e0016040528060608152602001600015158152602001606081526020016000815260200160001515815260200160008152602001600073ffffffffffffffffffffffffffffffffffffffff1681525090565b828054620002af90620004cb565b90600052602060002090601f016020900481019282620002d357600085556200031f565b82601f10620002ee57805160ff19168380011785556200031f565b828001600101855582156200031f579182015b828111156200031e57825182559160200191906001019062000301565b5b5090506200032e919062000332565b5090565b5b808211156200034d57600081600090555060010162000333565b5090565b60006200036862000362846200045f565b62000436565b9050828152602081018484840111156200038157600080fd5b6200038e84828562000495565b509392505050565b600082601f830112620003a857600080fd5b8151620003ba84826020860162000351565b91505092915050565b60008060408385031215620003d757600080fd5b600083015167ffffffffffffffff811115620003f257600080fd5b620004008582860162000396565b925050602083015167ffffffffffffffff8111156200041e57600080fd5b6200042c8582860162000396565b9150509250929050565b60006200044262000455565b905062000450828262000501565b919050565b6000604051905090565b600067ffffffffffffffff8211156200047d576200047c62000566565b5b620004888262000595565b9050602081019050919050565b60005b83811015620004b557808201518184015260208101905062000498565b83811115620004c5576000848401525b50505050565b60006002820490506001821680620004e457607f821691505b60208210811415620004fb57620004fa62000537565b5b50919050565b6200050c8262000595565b810181811067ffffffffffffffff821117156200052e576200052d62000566565b5b80604052505050565b7f4e487b7100000000000000000000000000000000000000000000000000000000600052602260045260246000fd5b7f4e487b7100000000000000000000000000000000000000000000000000000000600052604160045260246000fd5b6000601f19601f8301169050919050565b611b3280620005b66000396000f3fe608060405234801561001057600080fd5b50600436106100a95760003560e01c80636f64234e116100715780636f64234e1461018a5780638254aa70146101a6578063a9c221dd146101c2578063bc4b3365146101de578063ca4622fa146101fa578063fd4fa05a14610216576100a9565b80631499c592146100ae5780631d54ce55146100ca5780634c5c80e8146100fa57806357cf632f1461012a5780635f5152261461015a575b600080fd5b6100c860048036038101906100c39190611354565b610246565b005b6100e460048036038101906100df9190611354565b610386565b6040516100f191906115e5565b60405180910390f35b610114600480360381019061010f9190611354565b6104ed565b60405161012191906116c7565b60405180910390f35b610144600480360381019061013f919061144e565b610586565b60405161015191906115af565b60405180910390f35b610174600480360381019061016f9190611354565b6105c5565b60405161018191906116c7565b60405180910390f35b6101a4600480360381019061019f91906113d1565b61065e565b005b6101c060048036038101906101bb91906113d1565b6108cc565b005b6101dc60048036038101906101d7919061140d565b6109f9565b005b6101f860048036038101906101f391906113d1565b610bcb565b005b610214600480360381019061020f919061137d565b610d0d565b005b610230600480360381019061022b9190611354565b6110b8565b60405161023d91906115ca565b60405180910390f35b600115156000803373ffffffffffffffffffffffffffffffffffffffff1673ffffffffffffffffffffffffffffffffffffffff16815260200190815260200160002060010160009054906101000a900460ff161515146102db576040517f08c379a00000000000000000000000000000000000000000000000000000000081526004016102d290611607565b60405180910390fd5b6102e48161115e565b610323576040517f08c379a000000000000000000000000000000000000000000000000000000000815260040161031a90611647565b60405180910390fd5b60008060008373ffffffffffffffffffffffffffffffffffffffff1673ffffffffffffffffffffffffffffffffffffffff168152602001908152602001600020905060018160010160006101000a81548160ff0219169083151502179055505050565b606060008060008473ffffffffffffffffffffffffffffffffffffffff1673ffffffffffffffffffffffffffffffffffffffff16815260200190815260200160002060000180546103d690611868565b905011156104af576000808373ffffffffffffffffffffffffffffffffffffffff1673ffffffffffffffffffffffffffffffffffffffff168152602001908152602001600020600001805461042a90611868565b80601f016020809104026020016040519081016040528092919081815260200182805461045690611868565b80156104a35780601f10610478576101008083540402835291602001916104a3565b820191906000526020600020905b81548152906001019060200180831161048657829003601f168201915b505050505090506104e8565b6040518060400160405280601081526020017f6e6f2066616d696c7920666f756e64210000000000000000000000000000000081525090505b919050565b60006104f88261115e565b610537576040517f08c379a000000000000000000000000000000000000000000000000000000000815260040161052e90611647565b60405180910390fd5b60008060008473ffffffffffffffffffffffffffffffffffffffff1673ffffffffffffffffffffffffffffffffffffffff16815260200190815260200160002090508060050154915050919050565b6001818154811061059657600080fd5b906000526020600020016000915054906101000a900473ffffffffffffffffffffffffffffffffffffffff1681565b60006105d08261115e565b61060f576040517f08c379a000000000000000000000000000000000000000000000000000000000815260040161060690611647565b60405180910390fd5b60008060008473ffffffffffffffffffffffffffffffffffffffff1673ffffffffffffffffffffffffffffffffffffffff16815260200190815260200160002090508060030154915050919050565b60008060003373ffffffffffffffffffffffffffffffffffffffff1673ffffffffffffffffffffffffffffffffffffffff16815260200190815260200160002060040160009054906101000a900460ff169050806106f1576040517f08c379a00000000000000000000000000000000000000000000000000000000081526004016106e890611667565b60405180910390fd5b60008060003373ffffffffffffffffffffffffffffffffffffffff1673ffffffffffffffffffffffffffffffffffffffff1681526020019081526020016000206005015490508281101561077a576040517f08c379a0000000000000000000000000000000000000000000000000000000008152600401610771906116a7565b60405180910390fd5b60008060003373ffffffffffffffffffffffffffffffffffffffff1673ffffffffffffffffffffffffffffffffffffffff16815260200190815260200160002060030154905083811015610803576040517f08c379a00000000000000000000000000000000000000000000000000000000081526004016107fa90611687565b60405180910390fd5b60008060008773ffffffffffffffffffffffffffffffffffffffff1673ffffffffffffffffffffffffffffffffffffffff168152602001908152602001600020905060008582600301546108579190611754565b905080826003018190555060008060008973ffffffffffffffffffffffffffffffffffffffff1673ffffffffffffffffffffffffffffffffffffffff168152602001908152602001600020905060008782600301546108b691906117aa565b9050808260030181905550505050505050505050565b600115156000803373ffffffffffffffffffffffffffffffffffffffff1673ffffffffffffffffffffffffffffffffffffffff16815260200190815260200160002060010160009054906101000a900460ff16151514610961576040517f08c379a000000000000000000000000000000000000000000000000000000000815260040161095890611607565b60405180910390fd5b61096a8261115e565b6109a9576040517f08c379a00000000000000000000000000000000000000000000000000000000081526004016109a090611647565b60405180910390fd5b60008060008473ffffffffffffffffffffffffffffffffffffffff1673ffffffffffffffffffffffffffffffffffffffff1681526020019081526020016000209050818160050181905550505050565b600115156000803373ffffffffffffffffffffffffffffffffffffffff1673ffffffffffffffffffffffffffffffffffffffff16815260200190815260200160002060010160009054906101000a900460ff16151514610a8e576040517f08c379a0000000000000000000000000000000000000000000000000000000008152600401610a8590611607565b60405180910390fd5b60008060003373ffffffffffffffffffffffffffffffffffffffff1673ffffffffffffffffffffffffffffffffffffffff168152602001908152602001600020905081816000019080519060200190610ae89291906111c8565b5060005b600180549050811015610bc6578260008060018481548110610b37577f4e487b7100000000000000000000000000000000000000000000000000000000600052603260045260246000fd5b9060005260206000200160009054906101000a900473ffffffffffffffffffffffffffffffffffffffff1673ffffffffffffffffffffffffffffffffffffffff1673ffffffffffffffffffffffffffffffffffffffff1681526020019081526020016000206000019080519060200190610bb29291906111c8565b508080610bbe906118cb565b915050610aec565b505050565b600115156000803373ffffffffffffffffffffffffffffffffffffffff1673ffffffffffffffffffffffffffffffffffffffff16815260200190815260200160002060010160009054906101000a900460ff16151514610c60576040517f08c379a0000000000000000000000000000000000000000000000000000000008152600401610c5790611607565b60405180910390fd5b610c698261115e565b610ca8576040517f08c379a0000000000000000000000000000000000000000000000000000000008152600401610c9f90611647565b60405180910390fd5b60008060008473ffffffffffffffffffffffffffffffffffffffff1673ffffffffffffffffffffffffffffffffffffffff16815260200190815260200160002090506000828260030154610cfc9190611754565b905080826003018190555050505050565b600115156000803373ffffffffffffffffffffffffffffffffffffffff1673ffffffffffffffffffffffffffffffffffffffff16815260200190815260200160002060010160009054906101000a900460ff16151514610da2576040517f08c379a0000000000000000000000000000000000000000000000000000000008152600401610d9990611607565b60405180910390fd5b6000815111610de6576040517f08c379a0000000000000000000000000000000000000000000000000000000008152600401610ddd90611627565b60405180910390fd5b610dee61124e565b60008160200190151590811515815250508181604001819052506000803373ffffffffffffffffffffffffffffffffffffffff1673ffffffffffffffffffffffffffffffffffffffff1681526020019081526020016000206000018054610e5490611868565b80601f0160208091040260200160405190810160405280929190818152602001828054610e8090611868565b8015610ecd5780601f10610ea257610100808354040283529160200191610ecd565b820191906000526020600020905b815481529060010190602001808311610eb057829003601f168201915b505050505081600001819052506000816060018181525050600181608001901515908115158152505060648160a0018181525050828160c0019073ffffffffffffffffffffffffffffffffffffffff16908173ffffffffffffffffffffffffffffffffffffffff1681525050806000808573ffffffffffffffffffffffffffffffffffffffff1673ffffffffffffffffffffffffffffffffffffffff1681526020019081526020016000206000820151816000019080519060200190610f949291906111c8565b5060208201518160010160006101000a81548160ff0219169083151502179055506040820151816002019080519060200190610fd19291906111c8565b506060820151816003015560808201518160040160006101000a81548160ff02191690831515021790555060a0820151816005015560c08201518160060160006101000a81548173ffffffffffffffffffffffffffffffffffffffff021916908373ffffffffffffffffffffffffffffffffffffffff1602179055509050506001839080600181540180825580915050600190039060005260206000200160009091909190916101000a81548173ffffffffffffffffffffffffffffffffffffffff021916908373ffffffffffffffffffffffffffffffffffffffff160217905550505050565b60006110c38261115e565b611102576040517f08c379a00000000000000000000000000000000000000000000000000000000081526004016110f990611647565b60405180910390fd5b60008060008473ffffffffffffffffffffffffffffffffffffffff1673ffffffffffffffffffffffffffffffffffffffff16815260200190815260200160002090508060040160009054906101000a900460ff16915050919050565b6000806000905060008060008573ffffffffffffffffffffffffffffffffffffffff1673ffffffffffffffffffffffffffffffffffffffff16815260200190815260200160002060020180546111b390611868565b9050146111bf57600190505b80915050919050565b8280546111d490611868565b90600052602060002090601f0160209004810192826111f6576000855561123d565b82601f1061120f57805160ff191683800117855561123d565b8280016001018555821561123d579182015b8281111561123c578251825591602001919060010190611221565b5b50905061124a91906112a5565b5090565b6040518060e0016040528060608152602001600015158152602001606081526020016000815260200160001515815260200160008152602001600073ffffffffffffffffffffffffffffffffffffffff1681525090565b5b808211156112be5760008160009055506001016112a6565b5090565b60006112d56112d084611707565b6116e2565b9050828152602081018484840111156112ed57600080fd5b6112f8848285611826565b509392505050565b60008135905061130f81611ace565b92915050565b600082601f83011261132657600080fd5b81356113368482602086016112c2565b91505092915050565b60008135905061134e81611ae5565b92915050565b60006020828403121561136657600080fd5b600061137484828501611300565b91505092915050565b6000806040838503121561139057600080fd5b600061139e85828601611300565b925050602083013567ffffffffffffffff8111156113bb57600080fd5b6113c785828601611315565b9150509250929050565b600080604083850312156113e457600080fd5b60006113f285828601611300565b92505060206114038582860161133f565b9150509250929050565b60006020828403121561141f57600080fd5b600082013567ffffffffffffffff81111561143957600080fd5b61144584828501611315565b91505092915050565b60006020828403121561146057600080fd5b600061146e8482850161133f565b91505092915050565b611480816117de565b82525050565b61148f816117f0565b82525050565b60006114a082611738565b6114aa8185611743565b93506114ba818560208601611835565b6114c3816119a1565b840191505092915050565b60006114db601583611743565b91506114e6826119b2565b602082019050919050565b60006114fe601883611743565b9150611509826119db565b602082019050919050565b6000611521602283611743565b915061152c82611a04565b604082019050919050565b6000611544601783611743565b915061154f82611a53565b602082019050919050565b6000611567601d83611743565b915061157282611a7c565b602082019050919050565b600061158a601c83611743565b915061159582611aa5565b602082019050919050565b6115a98161181c565b82525050565b60006020820190506115c46000830184611477565b92915050565b60006020820190506115df6000830184611486565b92915050565b600060208201905081810360008301526115ff8184611495565b905092915050565b60006020820190508181036000830152611620816114ce565b9050919050565b60006020820190508181036000830152611640816114f1565b9050919050565b6000602082019050818103600083015261166081611514565b9050919050565b6000602082019050818103600083015261168081611537565b9050919050565b600060208201905081810360008301526116a08161155a565b9050919050565b600060208201905081810360008301526116c08161157d565b9050919050565b60006020820190506116dc60008301846115a0565b92915050565b60006116ec6116fd565b90506116f8828261189a565b919050565b6000604051905090565b600067ffffffffffffffff82111561172257611721611972565b5b61172b826119a1565b9050602081019050919050565b600081519050919050565b600082825260208201905092915050565b600061175f8261181c565b915061176a8361181c565b9250827fffffffffffffffffffffffffffffffffffffffffffffffffffffffffffffffff0382111561179f5761179e611914565b5b828201905092915050565b60006117b58261181c565b91506117c08361181c565b9250828210156117d3576117d2611914565b5b828203905092915050565b60006117e9826117fc565b9050919050565b60008115159050919050565b600073ffffffffffffffffffffffffffffffffffffffff82169050919050565b6000819050919050565b82818337600083830152505050565b60005b83811015611853578082015181840152602081019050611838565b83811115611862576000848401525b50505050565b6000600282049050600182168061188057607f821691505b6020821081141561189457611893611943565b5b50919050565b6118a3826119a1565b810181811067ffffffffffffffff821117156118c2576118c1611972565b5b80604052505050565b60006118d68261181c565b91507fffffffffffffffffffffffffffffffffffffffffffffffffffffffffffffffff82141561190957611908611914565b5b600182019050919050565b7f4e487b7100000000000000000000000000000000000000000000000000000000600052601160045260246000fd5b7f4e487b7100000000000000000000000000000000000000000000000000000000600052602260045260246000fd5b7f4e487b7100000000000000000000000000000000000000000000000000000000600052604160045260246000fd5b6000601f19601f8301169050919050565b7f596f7520617265206e6f74206120706172656e74210000000000000000000000600082015250565b7f43616e6e6f74206c65617665206e616d6520626c616e6b210000000000000000600082015250565b7f546869732061646472657373206973206e6f7420696e207468652066616d696c60008201527f7921000000000000000000000000000000000000000000000000000000000000602082015250565b7f596f7572206163636f756e742069732066726f7a656e21000000000000000000600082015250565b7f596f7520646f206e6f74206861766520656e6f7567682066756e647321000000600082015250565b7f596f7572207370656e64206c696d697420697320746f6f206c6f772100000000600082015250565b611ad7816117de565b8114611ae257600080fd5b50565b611aee8161181c565b8114611af957600080fd5b5056fea2646970667358221220be1a12f3c5f0adaaeae58c4f3fd4a728778a80fdaab7a586884c8eb2242a0dab64736f6c63430008030033",
  "linkReferences": {},
  "deployedLinkReferences": {}
}